:1009450012098C7534007535007536217B0C7D03D5
:100955007F211205BC7B007A0079218F36E4FDFFEB
:050965001208CD80FE28
:020A11002000C3
:1009D900C290D291D295E5805480FFC29570F5C23C
:0109E9009578
:0109EA0022EA
:1009EB00AE071209D9C290C291D2958E80C29522C0
:0609C30014F9120722FFE7
:1009C900AE071209D9D290C291D2958E80C29522D2
:10098C007F301209EB7F0C1209EB7F011209EB7B14
:0E099C00FF7A0A7911753601E4FDFF02096A3F
:10096A008B338A34893512091AAB330535E535AA32
:10097A0034700205341209C31536E536D394005093
:02098A00E82261
:0A08CD008F318D328B338A34893568
:1008D700AF361536EFD394004038AD32AF31120939
:1008E7001A0531E531D394074005E4F5310532ABFC
:1008F70033AA34A935120790FDACF0ECFF1209C9F1
:10090700AF051209C974022535F535E43534F534D8
:0209170080BEA0
:0109190022BB
:02091A00AE0726
:10091C00E4FFED14601014601314601624037016B9
:10092C00EE2480FF8010EE2490FF800AEE2488FFD6
:09093C008004EE2498FF0209EB8F
:050A07007F0F0209EB66
:050A0C007F0C0209EB64
:1009AA007F301209EB7F011209EB7BFF7A0A79117A
:0909BA00753601E4FDFF02096A33
:06084C008B0C8A0D890EE1
:100852007F341209EB7F341209EBE4FCEC4480FF95
:100862001209EB7F801209EBE4FDAB0C050EE50EDD
:10087200AA0D7002050D1209C3AB0C050EE50EAAF6
:100882000D7002050D1209C30DBD08DE0CBC20CC93
:10089200E4FCEC4480FF1209EB7F881209EBE4FDD3
:1008A200AB0C050EE50EAA0D7002050D1209C3ABC5
:1008B2000C050EE50EAA0D7002050D1209C30DBD41
:0B08C20008DE0CBC20CC7F360209EBE6
:10035200004D4AB8000D4A4C000DA5410025AAB631
:1003620000056A49007AADBD00025D5200092D47C1
:10037200005C95BA000A954E000B4A43004B553774
:10038200000AD54A00955ABF0004BA53000A5B48D6
:1003920000652BBC00052B50000A934500474AB963
:1003A2000006AA4C000AD5410024DAB60004B64A77
:1003B2000069573D000A4E51000D2646005E933AF1
:1003C200000D534D0005AA430036B53700096D4BA9
:1003D20000B4AEBF0004AD53000A4D48006D25BC09
:1003E200000D254F000D5244005DAA38000B5A4CF7
:1003F20000056D410024ADB600049B4A007A4BBE55
:10040200000A4B51000AA546005B52BA0006D24EC2
:10041200000ADA4200355B370009374B008497C186
:100422000004975300064B480066A53C000EA54FFA
:100432000006B244004AB638000AAE4C00092E4209
:10044200003C9735000C9649007D4ABD000D4A518B
:10045200000DA5450055AABA00056A4E000A6D4373
:1004620000452EB700052D4B008A95BF000A955313
:10047200000B4A47006B553B000AD54F00055A4511
:10048200004A5D38000A5B4C00052B42003A93B6E5
:1004920000069349007729BD0006AA51000AD546F5
:1004A2000054DABA0004B64E000A57430045273812
:1004B200000D264A008E933E000D5252000DAA47AF
:1004C2000066B53B00056D4F0004AE45004A4EB9CB
:1004D200000A4D4C000D1541002D92B500000000A0
:1004E2000000001F0000003B0000005A00000078DE
:1004F20000000097000000B5000000D4000000F3E7
:1005020000000111000001300000014E0000000057
:10051200B3F5D2BBB3F5B6FEB3F5C8FDB3F5CBC4A4
:10052200B3F5CEE5B3F5C1F9B3F5C6DFB3F5B0CB9C
:10053200B3F5BEC5B3F5CAAECAAED2BBCAAEB6FE3D
:10054200CAAEC8FDCAAECBC4CAAECEE5CAAEC1F908
:10055200CAAEC6DFCAAEB0CBCAAEBEC5B6FECAAE62
:10056200D8A5D2BBD8A5B6FED8A5C8FDD8A5CBC400
:10057200D8A5CEE5D8A5C1F9D8A5C6DFD8A5B0CBF8
:10058200D8A5BEC5C8FDCAAE0000D5FDB6FEC8FDE1
:10059200CBC4CEE5C1F9C6DFB0CBBEC5CAAEB6ACE0
:1005A200C0B0CAF3C5A3BBA2CDC3C1FAC9DFC2EDB5
:0A05B200D1F2BAEFBCA6B9B7D6ED3E
:060003008F388D398B3AA5
:1000090075F004EFA4244EF582E5F03403F583126C
:100019000820EF5460FFE4FEFDFC78051207F9E4BF
:100029007B01FAF9F8C31207E875F0047020E53886
:10003900A4244EF582E5F03403F583120820EF5429
:100049001FFFEF24FFF53CE434FFF53B801DE53845
:10005900A4244EF582E5F03403F583120820EF5409
:100069001FFFEF241EF53CE433F53BE53925E02578
:10007900E024DAF582E43404F5831208207C00EFE9
:10008900253AFFEC3ECF24FFF53EEF34FFF53DE581
:10009900385403700FE539D394024008053EE53E14
:1000A9007002053DC3E53E953CE53D953B50030295
:1000B90001B6D200E53E953CF53EE53D953BF53D63
:1000C900753901753F01E4F540FFFE7D08FCE53F08
:1000D90014F9F812080C75F004E538A4244EF582D9
:1000E900E5F03403F583120830EB5FFFEA5EFEE9C1
:1000F9005DFDE85CFCE4FBFAF9F8C31207E870035C
:100109000201A50201ABAF417E00C3E53E9FE53D7B
:100119009E50030201B1E53E9FF53EE53D9EF53D4A
:10012900053F75F004E538A4244EF582E5F0340363
:10013900F583120820E4FFFEED54F0FDE4FC781489
:100149001207F9A804A905AA06AB07AF39E4FCFD13
:10015900FEC31207E8700B6340FFE54070060539DE
:1001690080020539E4FFFE7D08FCE53F14F9F81229
:10017900080C75F004E538A4244EF582E5F0340343
:10018900F583120830EB5FFFEA5EFEE95DFDE85C8E
:10019900FCE4FBFAF9F8C31207E8700675411D0281
:1001A900010F75411E02010FE53E0202E1C200C3C3
:1001B900E53C953EF53CE53B953DF53B15387539F4
:1001C9000C75F004E538A4244EF582E5F03403F506
:1001D90083120820E4FFFEED54F0FDE4FC781412CC
:1001E90007F9E4FBFAF9F8C31207E87005753F0C43
:1001F9008003753F0DE4F540FFFE7D08FCE53F14E3
:10020900F9F812080C75F004E538A4244EF582E5D6
:10021900F03403F583120830EB5FFFEA5EFEE95D17
:10022900FDE85CFCE4FBFAF9F8C31207E870030285
:1002390002D00202D6AF417E00D3E53C9FE53B9E4A
:1002490050030202DCE53C9FF53CE53B9EF53B157E
:100259003FE5407002153975F004E538A4244EF5E0
:1002690082E5F03403F583120820E4FFFEED54F033
:10027900FDE4FC78141207F9A804A905AA06AB073E
:10028900AF39E4FCFDFEC31207E870036340FFE4E5
:10029900FFFE7D08FCE53F14F9F812080C75F0041F
:1002A900E538A4244EF582E5F03403F583120830CD
:1002B900EB5FFFEA5EFEE95DFDE85CFCE4FBFAF951
:1002C900F8C31207E8700675411D02023E75411E0A
:1002D90002023EC3E541953C04F53AE50B453AF582
:1002E9000BE50AF50AE509F509E508F508E53975A3
:1002F900F040A4FFAEF0EE3395E0FDFCE50B4FF5C1
:100309000BE50A4EF50AE5094DF509E5084CF5082E
:1003190075F004E538A4244EF582E5F03403F5833D
:10032900120820E4FFFEED54F0FDE4FC78141207F6
:10033900F9A804A905AA06AB07AF39E4FCFDFEC379
:080349001207E87002D322C381
:010351002289
:0205BC008F317D
:1005BE00E4F5371200035048AB34AA35A936AF37ED
:1005CE00053775F002EFA4F58285F08374C875F0D7
:1005DE00F21207BBE50B54C0FFE50A5403FEE4FD1F
:1005EE00FC78061207F990058A75F002EF120840A2
:1005FE00EE25E02583F583E493FE740193FF8030AE
:10060E00E50B54C0FFE50A5403FEE4FDFC78061228
:10061E0007F990058A75F002EF120840EE25E025E5
:10062E0083F583E493FE740193FFAB34AA35A936A8
:10063E00AD37053775F002EDA4F58285F083EE8FA8
:10064E00F01207BBAB34AA35A936AF37053775F0B4
:10065E0002EFA4F58285F08374D475F0C21207BB45
:10066E00E50B543FFF90050E75F004EF120840E4C1
:10067E0025E025E02583F583E493FE740193FFAD19
:10068E0037053775F002EDA4F58285F083EE8FF015
:10069E001207BBE50B543FFF90051075F004EF12E7
:1006AE000840E425E025E02583F583E493FE7401FC
:1006BE0093FFAD37053775F002EDA4F58285F08313
:1006CE00EE8FF01207BBE5312464FFE433FE7C00AD
:1006DE007D0C12073BAF053000028008EF70047FDF
:1006EE000B80011FEF25E024A4F582E43405F58389
:1006FE00E493FE740193FFAB34AA35A936AD3705EA
:10070E003775F002EDA4F58285F083EE8FF01207B7
:03071E00BBAF3737
:0107210022B5
:030000000209FBF7
:0C09FB00787FE4F6D8FD758141020945C3
:10072200BB010689828A83E0225002E722BBFE02D5
:09073200E32289828A83E4932208
:10073B00BC000BBE0029EF8DF084FFADF022E4CCA2
:10074B00F875F008EF2FFFEE33FEEC33FCEE9DEC6B
:10075B00984005FCEE9DFE0FD5F0E9E4CEFD22EDB1
:10076B00F8F5F0EE8420D21CFEADF075F008EF2FFB
:10077B00FFED33FD4007985006D5F0F222C398FDEC
:05078B000FD5F0EA2289
:10079000BB010A89828A83E0F5F0A3E02250068734
:1007A000F009E71922BBFE07E3F5F009E3192289F6
:0B07B000828A83E493F5F07401932229
:1007BB00F8BB0111E58229F582E5833AF583E8F070
:1007CB00E5F0A3F0225009E92582C8F608A6F0222D
:0D07DB00BBFE09E92582C8F2E5F008F22214
:1007E800EB9FF5F0EA9E42F0E99D42F0E89C45F067
:0107F80022DE
:1007F900E8600FECC313FCED13FDEE13FEEF13FFDE
:03080900D8F12201
:10080C00E86010ECA2E713FCED13FDEE13FEEF1302
:04081C00FFD8F022EF
:10082000E493FC740193FD740293FE740393FF221E
:10083000E493F8740193F9740293FA740393FB221E
:0C084000A42582F582E5F03583F58322C3
:00000001FF
